:10000000180000208D00000000000000000000002B
:1000100000000000000000000000000000000000E0
:10002000882200218020144B520199501349C000AE
:100030005A5882B002435A5080228021104B5200FD
:10004000DA64104B09035A690A43191C5A61802368
:1000500000221B034B60019201980B4A904202DC84
:10006000019A0132F7E78B6000230193019B9342D1
:10007000EDDC019B0133F8E700700440381000000C
:1000800000A0044040F00F403F0D03000022104943
:10009000104B10B55B1A9B0801339B00101D984252
:1000A00004D000248A181460021CF7E700220A49D1
:1000B0000A4B5B1A9B0801339B00101D984204D029
:1000C000074CA4588C50021CF7E7FFF7A9FFFEE786
:1000D0001800002018000020180000201800002040
:0400E000E400000038
:040000030000008D6C
:00000001FF
