:020000040800F2
:10000000180000207D000008000000000000000033
:1000100000000000000000000000000000000000E0
:100020008021124A0903536982B00B435361104A7D
:10003000104B11680B40802149020B431360802351
:100040005B00936100230193019B0B498B4202DC0F
:10005000019B0133F7E780235B0493610023019345
:10006000019B8B42EBDC019B0133F8E7001002405F
:1000700000080048FFFFFCFF9F8601000022104996
:10008000104B10B55B1A9B0801339B00101D984262
:1000900004D000248A181460021CF7E700220A49E1
:1000A0000A4B5B1A9B0801339B00101D984204D039
:1000B000074CA4588C50021CF7E7FFF7B1FFFEE78E
:1000C0001800002018000020180000201800002050
:0400D000D400000850
:040000050800007D72
:00000001FF
