:1000000000040010AD04000000000000000000002B
:1000100000000000000000000000000000000000E0
:100020008021074A8900D36F0B43D3670022054B19
:10003000F639FF391A67D9609A6001325A60704701
:100040000480044000400140014B98687047C0465E
:1000500000400140024B9B689842FBD87047C04665
:100060000040014080200349034A8B5883438B5052
:100070007047C04600000150FC3F0000802003494B
:10008000034A8B5803438B507047C0460000015011
:10009000FC3F000080228020044908B512028B58E2
:1000A00003438B50FFF7EAFF08BDC0460000015034
:1000B000F8B5061CFFF7C8FF041C251C1A35FFF70E
:1000C000D1FF271C281CFFF7C5FFEA37F30702D42E
:1000D000FFF7C8FF01E0FFF7D1FF1A35281C7608AB
:1000E000FFF7B8FFBD42F1D1FFF7C8FF201C1F305A
:1000F000FF30FFF7AFFFF8BD10B5041C20780028D3
:1001000003D0FFF7D5FF0134F8E710BD10B5041C8C
:1001100080231B069C4203D10D48FFF7EDFF16E03C
:10012000002C04DA2D20FFF7C3FF6442F0E7201C07
:100130000A2100F0FDF9002801D0FFF7E7FF201C9D
:100140000A2100F0DBFA3031C8B2FFF7B1FF10BD71
:100150001007000008B50F231840092801DC3030D3
:1001600000E03730FFF7A4FF08BD70B5061C0C1C7B
:100170008D00043D002C05DD301CE840013CFFF7FC
:10018000E9FFF6E770BD000038B50C1C151CFFF741
:10019000B3FF201C0821FFF7E8FF002D08D0064818
:1001A000FFF7AAFF201CFFF7B1FF0448FFF7A4FFE9
:1001B0000348FFF7A1FF38BD3E07000041070000DC
:1001C000C209000038B5041C1248FFF795FF201C37
:1001D000FFF79CFF201C00F097F9051C0E48FFF765
:1001E0008BFF281C0821FFF7C0FF002D03D10B480F
:1001F000FFF782FF09E00A4D0A482B681C192C60A2
:10020000FFF77AFF2868FFF781FF0748FFF774FFC1
:1002100038BDC046440700005107000055070000E4
:10022000000400105D070000C209000038B55748FF
:10023000FFF762FF5648FFF75FFF564C201CFFF7A1
:100240005BFF5548FFF758FF544855490022FFF718
:100250009BFF544854490022FFF796FF534901225F
:100260005348FFF791FF201CFFF746FF51485249C2
:100270000022FFF789FF514851490022FFF784FF10
:10028000504901225048FFF77FFF201CFFF734FF41
:100290004E48FFF731FF4E484E490022FFF774FFEA
:1002A0004D484E490022FFF76FFF4D4901224D484E
:1002B000FFF76AFF201CFFF71FFF4B484B49002246
:1002C000FFF762FF4A484B490022FFF75DFF4A49AA
:1002D00001224A48FFF758FF201CFFF70DFF48484E
:1002E00048490022FFF750FF474848490022FFF7DE
:1002F0004BFF474901224748FFF746FF201CFFF705
:10030000FBFE454845490022FFF73EFF444845496A
:100310000022FFF739FF444901224448FFF734FF28
:10032000201CFFF7E9FE424842490022FFF72CFF5C
:10033000414842490022FFF727FF41490122414835
:10034000FFF722FF201CFFF7D7FE3F483F4900225E
:10035000FFF71AFF3E483F490022FFF715FF3E4DC9
:100360000122291C3D48FFF70FFF201CFFF7C4FEA8
:10037000281C0938FFF726FF0320FFF723FF012081
:10038000FFF720FF0120FFF71DFF38BD1C0700000D
:1003900059040010C20900006A070000700700003D
:1003A00000000000880700000080000000800000BE
:1003B000A0070000B807000000000010D0070000F0
:1003C0000010001000100000E80700000008000006
:1003D0000D0800000000000025080000CC09000006
:1003E000CC0900003D08000055080000CC090000C1
:1003F0006D080000CC0900003400000085080000F2
:100400009D08000048040010B50800007C0400109E
:1004100034000000CD080000E508000000040010D2
:10042000FD08000048040010480000001509000005
:100430002D09000000000010450900000004001014
:10044000000400005D090000750900007C04001034
:100450008D09000000100010840B0000A5090000A9
:1004600010B5FFF7DDFDFFF715FE0C48FFF744FE62
:100470000A2400230A4843700470FFF73DFEFFF78B
:10048000D5FE0848FFF738FE201C00F03DF8002894
:1004900002D10548FFF730FE002010BD48040010CF
:1004A00004040010BD090000C40900000022104926
:1004B000104B10B55B1A9B0801339B00101D98422E
:1004C00004D000248A181460021CF7E700220A49AD
:1004D0000A4B5B1A9B0801339B00101D984204D005
:1004E000074CA4588C50021CF7E7FFF7B9FFFEE752
:1004F0000004001048040010480400107C040010A0
:10050000CC090000002070470323074903300A6824
:1005100098438318054810B504680020A34201DC05
:10052000101C0B6010BDC04678040010740400104D
:1005300003460B437FD4002243088B4274D3030944
:100540008B425FD3030A8B4244D3030B8B4228D3E5
:10055000030C8B420DD3FF22090212BA030C8B420B
:1005600002D31212090265D0030B8B4219D300E0AB
:10057000090AC30B8B4201D3CB03C01A5241830B30
:100580008B4201D38B03C01A5241430B8B4201D3E0
:100590004B03C01A5241030B8B4201D30B03C01A09
:1005A0005241C30A8B4201D3CB02C01A5241830A83
:1005B0008B4201D38B02C01A5241430A8B4201D3B2
:1005C0004B02C01A5241030A8B4201D30B02C01ADC
:1005D0005241CDD2C3098B4201D3CB01C01A524143
:1005E00083098B4201D38B01C01A524143098B42CC
:1005F00001D34B01C01A524103098B4201D30B01B5
:10060000C01A5241C3088B4201D3CB00C01A5241D9
:1006100083088B4201D38B00C01A524143088B429E
:1006200001D34B00C01A5241411A00D20146524137
:10063000104670475DE0CA0F00D04942031000D356
:100640004042534000229C4603098B422DD3030AAB
:100650008B4212D3FC22890112BA030A8B420CD3BB
:10066000890192118B4208D3890192118B4204D3E4
:1006700089013AD0921100E08909C3098B4201D364
:10068000CB01C01A524183098B4201D38B01C01A9E
:10069000524143098B4201D34B01C01A5241030915
:1006A0008B4201D30B01C01A5241C3088B4201D3C4
:1006B000CB00C01A524183088B4201D38B00C01A71
:1006C0005241D9D243088B4201D34B00C01A524148
:1006D000411A00D20146634652415B10104601D3D5
:1006E0004042002B00D54942704763465B1000D35F
:1006F000404201B50020FFF705FF02BD0029F8D0F8
:1007000003B5FFF715FF0EBC4243891A1847C046D0
:100710002D323134373438333634380074686973E5
:10072000207465787420697320696E207468652070
:10073000434F4445207365676D656E740A00202839
:1007400000292000202020616C6C6F63617465209B
:100750000020703D00206661696C656400204F4B8D
:1007600020746F74616C203D2000436869700A003A
:10077000202020524F4D207374617274202020205D
:1007800020202020203A2000202020524F4D20659C
:100790006E6420202020202020202020203A2000CD
:1007A000202020524F4D2073697A65202020202080
:1007B00020202020203A200020202052414D20736C
:1007C000746172742020202020202020203A2000F4
:1007D00020202052414D20656E64202020202020C2
:1007E00020202020203A200020202052414D20733C
:1007F000697A65202020202020202020203A200017
:100800004170706C69636174696F6E0A002020200A
:100810005445585420737461727420202020202085
:1008200020203A20002020205445585420656E6432
:10083000202020202020202020203A2000202020BE
:10084000544558542073697A6520202020202020A8
:1008500020203A2000202020444154412028524F9B
:100860004D2920737461727420203A2000202020CA
:10087000444154412028524F4D2920656E64202068
:1008800020203A2000202020444154412028524F6B
:100890004D292073697A652020203A2000202020ED
:1008A00044415441202852414D292073746172748F
:1008B00020203A2000202020444154412028524149
:1008C0004D2920656E64202020203A200020202021
:1008D00044415441202852414D292073697A6520B2
:1008E00020203A200020202042535320737461724C
:1008F000742020202020202020203A2000202020AA
:1009000042535320656E6420202020202020202088
:1009100020203A20002020204253532073697A651A
:10092000202020202020202020203A2000202020CD
:10093000535441434B20626F74746F6D202020200C
:1009400020203A2000202020535441434B20746F34
:10095000702020202020202020203A20002020204D
:10096000535441434B2073697A6520202020202076
:1009700020203A20002020204845415020626F74FA
:10098000746F6D202020202020203A20002020207D
:100990004845415020746F702020202020202020C6
:1009A00020203A2000202020484541502073697AB9
:1009B000652020202020202020203A20000A646F7B
:0C09C0006E650A004E554C4C0000000013
:1009CC006D656D6F7279206D617020746573740A3A
:1009DC00007465787420696E2074686520444154F5
:1009EC0041207365676D656E740A0000001000107D
:0409FC007C04001067
:04000003000004AD48
:00000001FF
